:020000040000FA
:1000000010020020C10000002D0500001D050000A9
:10001000FFFFFFFFFFFFFFFFFFFFFFFFFFFFFFFFF0
:10002000FFFFFFFFFFFFFFFFFFFFFFFF31050000A6
:10003000FFFFFFFFFFFFFFFF2F050000330500005C
:1000400035010000350100003501000035010000D8
:1000500035010000350100003501000035010000C8
:1000600035010000FFFFFFFF3501000035010000F2
:10007000350100003501000035010000FFFFFFFFE2
:10008000FFFFFFFF210200003501000035010000E5
:100090003501000035010000350100003501000088
:1000A0003501000035010000350100003501000078
:1000B0003501000035010000350100003501000068
:1000C0001D4880471D4880471D4800471D4801695D
:1000D000002908D14169002905D18169002902D18F
:1000E000C169002909D01848C1680901090D002912
:1000F0000ED005290CD006290AD0BFF34F8F134824
:100100001349016013491248C860BFF34F8FFEE7DF
:100110000E4801680E48884200D070470E480F49CB
:1001200001600A480E4901607047FEE7FEE7FEE7FE
:10013000FEE7FEE7FEE70000CD0000003505000009
:100140006501000000030840800108400000002015
:100150000400FA0500ED00E0008108400100000005
:10016000000000000348854600F01CF800480047E6
:10017000510600001002002030B50B460146002059
:100180002022012409E00D46D5409D4205D31D469D
:100190009540491B2546954040191546521E002D95
:1001A000F1DC30BD064C0125064E05E0E36807CCC6
:1001B0002B430C3C98471034B442F7D3FFF7D6FFDB
:1001C000B8060000D8060000F0B596460A46134966
:1001D000C000461800230025FF2098402C461042FE
:1001E00016D00020012199408C461146C140674637
:1001F000394206D087000F21B9400D437146B940FE
:100200000C43401C0828F0D33068A84320433060DA
:100210000833361D082BDEDDF0BD00002020024033
:1002200070B5012000F06CF90546022000F068F975
:10023000002D00D10124002800D102240B48012CFC
:100240000DD0022C0AD10A4D2C6A00F015F809488D
:1002500028628010844201D06010286270BD00F0D6
:100260000BF8012000F03CF970BD00000060074071
:1002700000400B40FDFF0000416849084900416013
:10028000BFF34F8F7047000010B500200122120409
:100290000123014600F040F80B4805210068FFF7F4
:1002A0006BFF0A4C0146204600F027F8002120464B
:1002B00000F025F80121204600F015F8012004493E
:1002C0004004086010BD00000800002000600740E6
:1002D00000E100E004220029016801D0114300E0A0
:1002E0009143016070470029016802D00122114347
:1002F00001E04908490001607047C16070478160B2
:10030000704710B507200121002240048903012312
:1003100000F002F810BD0000F0B5084F7C6AFD6ADD
:100320003E6B84438D439643002B02D004430D4320
:1003300016437C62FD623E63F0BD00000080084011
:10034000002A026801D00A4300E08A430260704735
:1003500070B50122140321461046FFF735FF012234
:1003600002210320FFF730FF012204210320FFF7C1
:100370002BFF184D002221462846FFF7E1FF164EBD
:10038000002202213046FFF7DBFF00220421304625
:10039000FFF7D6FF02222146284600F087F8022206
:1003A0001146304600F082F802220421304600F067
:1003B0007DF801222146284600F010F80122022192
:1003C000304600F00BF801220421304600F006F818
:1003D00070BD000000200B4000600B40002A426806
:1003E00001D00A4300E08A434260704770B50121A2
:1003F0000903144800F06FF8134C144D20700221CB
:10040000284600F068F860700421284600F063F880
:10041000A07021780E4D01290CD061780D4A002979
:100420000AD0002808D000211046FFF753FF0A48E1
:10043000286270BD0948FBE701211046FFF74AFF1B
:1004400070BD000000200B400000002000600B4049
:1004500000400B4000600740FFFF0000FFBF0000AE
:1004600070B50122950329460220FFF7ADFE012257
:10047000D40321460220FFF7A7FE022101220846ED
:10048000FFF7A2FE2946084D01222846FFF758FF34
:10049000012221462846FFF753FF01220221284668
:1004A000FFF74EFF70BD000000400B40002A08D04F
:1004B000012A09D082688A438260C2688A43C26086
:1004C000704782680A43F7E7C2680A43C2608268DD
:1004D0008A4382607047C069084000D0012070479D
:1004E0000649095C8A0005491C3189580A6A034B90
:1004F00040001033185A42400A62704774060000E8
:1005000010B5054A4100515A103A105C163280006D
:100510001058FFF7E0FF10BD8A060000024801688E
:100520000029FCD07047000004000020704770478D
:1005300070477047F0B539491020C860384A01202B
:1005400010603849086B402528430863364800236B
:1005500044158668272EFCD100E044604668B60545
:10056000FBD500E043604668B605FBD41360486ADB
:10057000032292029043486248680122D20210434B
:1005800048608868C008C007FBD04868C008C00041
:10059000C01C4860486B4007400F0328FAD1234A2B
:1005A0001068C008C000401C10600B624868A0437F
:1005B0004860086896153043086048681715384346
:1005C000486088688008C007FBD0086BA8430863B0
:1005D0000868B0430860032000068861486820432B
:1005E000486088684008C007FBD01068C008C00099
:1005F000801C10600B624868C008C000401C486046
:10060000486B4007400F0128FAD1106810210843B9
:1006100010601068090208431060F0BD00810840B6
:10062000008308400080084000A106400002084006
:1006300002E008C8121F08C1002AFAD170477047AB
:10064000002001E001C1121F002AFBD17047000009
:10065000FFF757FEFFF77CFEFFF702FFFFF714FEE0
:10066000034902480862FFF7C1FEFCE7FFFF0000F4
:1006700000400B40020202010101010303010101DC
:100680000C01020000400080020000100200040083
:1006900000000B4000200B4000400B4000600B406E
:1006A00000000000000000000000044000001000F6
:1006B0000600000020000600D80600000000002010
:1006C0000C00000030060000E40600000C000020D2
:1006D00004020000400600000000000000000000CE
:0406E000006CDC02CC
:04000005000000C136
:00000001FF
